:100000000C942A000C9447000C9447000C94470071
:100010000C9447000C9447000C9447000C94470044
:100020000C9447000C9447000C9447000C94470034
:100030000C9447000C9447000C9447000C94470024
:100040000C9447000C9447000C9447000C94470014
:100050000C94470011241FBECFE5D4E0DEBFCDBF16
:1000600010E0A0E6B0E0E4EAF3E302C005900D92F0
:10007000A637B107D9F711E0A6E7B0E001C01D929D
:10008000AA38B107E1F70E94DD140C94D0190C9442
:100090000000EF92FF920F931F937B018C0120E0F1
:1000A00030E040E05FE40E94F50388238CF0C80153
:1000B000B70120E030E040E05FE40E94C1010E940F
:1000C00055049B01AC01205030404040504806C0D0
:1000D000C801B7010E9455049B01AC01B901CA01D6
:1000E0001F910F91FF90EF900895A0E0B0E0EBE733
:1000F000F0E00C94C216DC012B01FA019C919230C5
:1001000008F439C1EB018881823008F433C194309E
:1001100069F4843009F02FC111969C91119789815F
:10012000981709F428C1A5E6B0E025C1843009F488
:1001300021C18230A9F4923009F01DC19A01AD01AC
:1001400088E0EA010990AE01E90109929E0181501F
:10015000C1F7E201898111969C918923818308C1AD
:10016000923009F407C112962D903C901397EB0141
:100170008A819B811496AD90BD90CD90DC901797AD
:10018000EC80FD800E811F819101281B390BB90184
:1001900037FF04C066277727621B730B6032710537
:1001A0000CF061C0121613066CF537014801062EDB
:1001B00004C096948794779467940A94D2F721E0C8
:1001C00030E040E050E004C0220F331F441F551FB1
:1001D0006A95D2F721503040404050402E213F21B7
:1001E00040235123211531054105510521F021E01E
:1001F00030E040E050E079018A01E628F72808293C
:1002000019293CC0232BD1F1260E371E350146019A
:10021000062E04C096948794779467940A94D2F734
:1002200021E030E040E050E004C0220F331F441FC3
:10023000551F6A95D2F721503040404050402A2146
:100240003B214C215D21211531054105510521F04E
:1002500021E030E040E050E059016A01A628B728CB
:10026000C828D9280BC0821593052CF01C01AA249C
:10027000BB24650103C0EE24FF24870111969C91E5
:10028000D20111968C91981709F445C0992339F041
:10029000A80197012A193B094C095D0906C0A6016E
:1002A00095012E193F09400B510B57FD08C01182D3
:1002B0003382228224833583468357831DC081E0A5
:1002C00081833382228288279927DC01821B930B4A
:1002D000A40BB50B84839583A683B7830DC0220F2F
:1002E000331F441F551F24833583468357838281E0
:1002F000938101979383828324813581468157813D
:10030000DA01C9010197A109B1098F5F9F4FAF4F72
:10031000BF4328F30BC0918333822282EA0CFB1C7B
:100320000C1D1D1DE482F5820683178383E0808304
:10033000248135814681578157FF1AC0C901AA27F8
:1003400097FDA095BA2F81709070A070B0705695EF
:10035000479537952795822B932BA42BB52B848318
:100360009583A683B7838281938101969383828349
:10037000DF0101C0D201CD01CDB7DEB7E2E10C94BF
:10038000DE16A0E2B0E0E7ECF1E00C94CE16698353
:100390007A838B839C832D833E834F835887E9E048
:1003A000EE2EF12CEC0EFD1ECE010196B7010E943F
:1003B0007E058E010F5E1F4FCE010596B8010E948B
:1003C0007E058A8991E089278A8BC701B801AE0131
:1003D000475E5F4F0E9475000E94A904A096E6E068
:1003E0000C94EA16A0E2B0E0E8EFF1E00C94CE162F
:1003F00069837A838B839C832D833E834F835887C5
:10040000F9E0EF2EF12CEC0EFD1ECE010196B701A6
:100410000E947E058E010F5E1F4FCE010596B8012A
:100420000E947E05C701B801AE01475E5F4F0E9482
:1004300075000E94A904A096E6E00C94EA16A0E2DA
:10044000B0E0E5E2F2E00C94C21669837A838B8314
:100450009C832D833E834F835887CE010196BE0136
:10046000675F7F4F0E947E05CE010596BE016F5EDD
:100470007F4F0E947E059985923088F0898982306D
:10048000C8F0943019F4823051F404C0843029F457
:10049000923081F485E690E0C6C0923049F420E0C5
:1004A0009A858A89981321E02A87CE010996BBC0D4
:1004B000823049F420E09A858A89981321E02A8BBA
:1004C000CE014196B0C02D843E844F8458886D88FB
:1004D0007E888F88988CEE24FF248701AA24BB2471
:1004E000650140E050E060E070E0E0E0F0E0C10174
:1004F00081709070892BE9F0E60CF71C081D191D1E
:100500009A01AB012A0D3B1D4C1D5D1D80E090E062
:10051000A0E0B0E0E614F7040805190520F481E036
:1005200090E0A0E0B0E0BA01A901480F591F6A1F8E
:100530007B1FAA0CBB1CCC1CDD1C97FE08C081E0F5
:1005400090E0A0E0B0E0A82AB92ACA2ADB2A3196B6
:10055000E032F10549F0660C771C881C991C569412
:10056000479437942794C3CFFA85EA892B893C892D
:100570008B859C85280F391F2E5F3F4F17C0CA01FE
:1005800081709070892B61F016950795F794E79428
:1005900080E090E0A0E0B0E8E82AF92A0A2B1B2BC3
:1005A00076956795579547952F5F3F4F77FDE7CF36
:1005B0000CC0440F551F661F771F17FD4160EE0CDE
:1005C000FF1C001F111F21503040403090E05907A0
:1005D00090E0690790E4790760F32B8F3C8FDB0193
:1005E000CA018F779070A070B07080349105A1051A
:1005F000B10561F447FD0AC0E114F10401051105DC
:1006000029F0405C5F4F6F4F7F4F40781A8EFE1786
:1006100011F081E08A8F4D8F5E8F6F8F78A383E01A
:10062000898FCE0149960E94A904A096E2E10C941C
:10063000DE16A8E1B0E0EFE1F3E00C94CA1669839E
:100640007A838B839C832D833E834F835887B9E0C5
:10065000EB2EF12CEC0EFD1ECE010196B7010E948F
:100660007E058E010F5E1F4FCE010596B8010E94D8
:100670007E052985223008F47EC03989323010F495
:10068000B8017CC08A859A8989278A87243011F02D
:10069000223031F4231709F06EC065E670E06EC0B9
:1006A000343039F41D861E861F86188A1C861B86E8
:1006B00004C0323021F484E08987B7015FC02B8504
:1006C0003C858B899C89281B390B3C872B87ED84C3
:1006D000FE840F851889AD88BE88CF88D88CEA142F
:1006E000FB040C051D0540F4EE0CFF1C001F111F40
:1006F000215030403C872B8720E030E040E050E044
:1007000080E090E0A0E0B0E460E070E0EA14FB0478
:100710000C051D0540F0282B392B4A2B5B2BEA18C2
:10072000FB080C091D09B695A79597958795EE0CC2
:10073000FF1C001F111F6F5F7F4F6F31710531F775
:10074000DA01C9018F779070A070B0708034910584
:10075000A105B10561F427FD0AC0E114F10401050A
:10076000110529F0205C3F4F4F4F5F4F20782D87B8
:100770003E874F87588BBE01675F7F4FCB010E943A
:10078000A9046896EAE00C94E616A8E1B0E0EBEC68
:10079000F3E00C94CE1669837A838B839C832D833C
:1007A0003E834F83588789E0E82EF12CEC0EFD1E26
:1007B000CE010196B7010E947E058E010F5E1F4F8C
:1007C000CE010596B8010E947E058985823040F0F1
:1007D0008989823028F0C701B8010E94F60501C05E
:1007E0008FEF6896E6E00C94EA16A8E1B0E0EBEF34
:1007F000F3E00C94CE1669837A838B839C832D83DC
:100800003E834F83588789E0E82EF12CEC0EFD1EC5
:10081000CE010196B7010E947E058E010F5E1F4F2B
:10082000CE010596B8010E947E058985823040F090
:100830008989823028F0C701B8010E94F60501C0FD
:100840008FEF6896E6E00C94EA16A8E1B0E0EBE2E0
:10085000F4E00C94CE1669837A838B839C832D837A
:100860003E834F83588789E0E82EF12CEC0EFD1E65
:10087000CE010196B7010E947E058E010F5E1F4FCB
:10088000CE010596B8010E947E058985823040F030
:100890008989823028F0C701B8010E94F60501C09D
:1008A00081E06896E6E00C94EA16ACE0B0E0EBE597
:1008B000F4E00C94D21669837A838B839C83CE01F7
:1008C0000196BE016B5F7F4F0E947E058D81823055
:1008D00061F1823050F1843021F48E81882351F10E
:1008E0002EC02F81388537FD20C06E812F31310514
:1008F0001CF06623F9F023C08EE190E0821B930B7D
:1009000029853A854B855C8504C056954795379572
:1009100027958A95D2F76623B1F05095409530958A
:1009200021953F4F4F4F5F4F0EC020E030E040E039
:1009300050E009C02FEF3FEF4FEF5FE704C020E02A
:1009400030E040E050E8B901CA012C96E2E00C9496
:10095000EE16DF92EF92FF920F931F93FC01E4805B
:10096000F58006811781D1808081823048F480E053
:1009700090E0A0E1B0E0E82AF92A0A2B1B2BA5C0E1
:10098000843009F49FC0823021F4EE24FF248701D3
:1009900005C0E114F1040105110519F4E0E0F0E0EF
:1009A00096C0628173819FEF623879070CF05BC05B
:1009B00022E83FEF261B370B2A3131052CF020E0CF
:1009C00030E040E050E02AC0B801A701022E04C088
:1009D00076956795579547950A94D2F781E090E010
:1009E000A0E0B0E004C0880F991FAA1FBB1F2A9582
:1009F000D2F70197A109B1098E219F21A023B1232C
:100A00000097A105B10521F081E090E0A0E0B0E001
:100A10009A01AB01282B392B4A2B5B2BDA01C90138
:100A20008F779070A070B07080349105A105B105EA
:100A300039F427FF09C0205C3F4F4F4F5F4F04C080
:100A4000215C3F4F4F4F5F4FE0E0F0E02030A0E0EF
:100A50003A07A0E04A07A0E45A0710F0E1E0F0E00E
:100A600079018A0127C06038710564F5FB01E158FE
:100A7000FF4FD801C7018F779070A070B07080349D
:100A80009105A105B10539F4E7FE0DC080E490E0C1
:100A9000A0E0B0E004C08FE390E0A0E0B0E0E80E9A
:100AA000F91E0A1F1B1F17FF05C016950795F7941F
:100AB000E794319687E016950795F794E7948A9521
:100AC000D1F705C0EE24FF248701EFEFF0E06E2F91
:100AD000679566276795902F9F77D794DD24D794E5
:100AE0008E2F8695492F462B582F5D29B701CA01B5
:100AF0001F910F91FF90EF90DF900895FC01DB01B3
:100B0000408151812281622F6F7770E0221F22275E
:100B1000221F9381892F880F822B282F30E0991F65
:100B20009927991F11969C93119721153105A9F5C5
:100B3000411551056105710511F482E037C082E865
:100B40009FEF13969C938E9312979A01AB0167E0E7
:100B5000220F331F441F551F6A95D1F783E08C93F2
:100B60000DC0220F331F441F551F12968D919C916B
:100B70001397019713969C938E931297203080E0E1
:100B8000380780E0480780E4580758F314962D93FF
:100B90003D934D935C93179708952F3F310579F45A
:100BA000411551056105710519F484E08C93089590
:100BB00064FF03C081E08C9312C01C9210C02F57B9
:100BC000304013963C932E93129783E08C9387E0EA
:100BD000440F551F661F771F8A95D1F770641496CE
:100BE0004D935D936D937C93179708951F93DC014C
:100BF000FB019C91923008F447C08081823008F458
:100C000043C0943051F411961C91843099F5818140
:100C1000682F70E0611B71093FC0843021F0923071
:100C200031F48230B9F18181882389F12DC0119688
:100C30001C9111978230F1F081811817D9F4129626
:100C40002D913C911397828193818217930794F0A1
:100C500028173907BCF014968D919D910D90BC9189
:100C6000A02D2481358146815781281739074A07ED
:100C70005B0718F4112341F00AC082179307A407F9
:100C8000B50740F4112319F061E070E005C06FEF83
:100C90007FEF02C060E070E0CB011F910895DF9309
:100CA000CF93CDB7DEB72D970FB6F894DEBF0FBE4A
:100CB000CDBF89836A834B838981282F30E03D87AC
:100CC0002C878C859D858130910509F444C02C8545
:100CD0003D85223031052CF48C859D85009771F07F
:100CE000C2C02C853D852230310509F462C08C8557
:100CF0009D858330910509F489C0B5C08B81882317
:100D0000A9F0ABE3B0E0EBE3F0E08081482F8A810B
:100D1000282F30E081E090E0022E02C0880F991F5A
:100D20000A94E2F7842B8C939C919DC0ABE3B0E0D6
:100D3000EBE3F0E08081482F8A81282F30E081E0CA
:100D400090E002C0880F991F2A95E2F780958423CE
:100D50008C932C9188C08B818823A9F0A8E3B0E004
:100D6000E8E3F0E08081482F8A81282F30E081E09D
:100D700090E0022E02C0880F991F0A94E2F7842B9C
:100D80008C933C9170C0A8E3B0E0E8E3F0E0808190
:100D9000482F8A81282F30E081E090E0022E02C0A7
:100DA000880F991F0A94E2F7809584238C938C9185
:100DB0005AC08B818823A9F0A5E3B0E0E5E3F0E019
:100DC0008081482F8A81282F30E081E090E0022E38
:100DD00002C0880F991F0A94E2F7842B8C939C9190
:100DE00042C0A5E3B0E0E5E3F0E08081482F8A81CE
:100DF000282F30E081E090E002C0880F991F2A95EB
:100E0000E2F7809584238C932C912DC08B818823CD
:100E1000A9F0A2E3B0E0E2E3F0E08081482F8A810C
:100E2000282F30E081E090E0022E02C0880F991F49
:100E30000A94E2F7842B8C933C9115C0A2E3B0E0B6
:100E4000E2E3F0E08081482F8A81282F30E081E0C2
:100E500090E0022E02C0880F991F0A94E2F7809555
:100E600084238C938C912D960FB6F894DEBF0FBE21
:100E7000CDBFCF91DF910895DF93CF9300D000D005
:100E8000CDB7DEB789836A838981282F30E03C8320
:100E90002B838B819C818130910549F12B813C8191
:100EA000223031052CF48B819C81009761F05AC06F
:100EB0002B813C812230310571F18B819C81833003
:100EC0009105E9F14FC0ABE3B0E0EBE3F0E08081E6
:100ED000482F8A81282F30E081E090E0022E02C066
:100EE000880F991F0A94E2F7842B8C933BC0A8E3E8
:100EF000B0E0E8E3F0E08081482F8A81282F30E0DD
:100F000081E090E0022E02C0880F991F0A94E2F758
:100F1000842B8C9327C0A5E3B0E0E5E3F0E080816B
:100F2000482F8A81282F30E081E090E0022E02C015
:100F3000880F991F0A94E2F7842B8C9313C0A2E3C5
:100F4000B0E0E2E3F0E08081482F8A81282F30E092
:100F500081E090E0022E02C0880F991F0A94E2F708
:100F6000842B8C930F900F900F900F90CF91DF9167
:100F70000895DF93CF9300D000D000D0CDB7DEB777
:100F800089836A838981282F30E03D832C834C81BB
:100F90005D814130510549F18C819D8182309105FF
:100FA00034F42C813D812115310561F057C04C810D
:100FB0005D814230510561F18C819D8183309105C5
:100FC000D1F14CC0E9E3F0E08081282F30E08A8144
:100FD000882F90E0A90102C0559547958A95E2F7C0
:100FE000CA01582F51705B833AC0E6E3F0E080817C
:100FF000282F30E08A81882F90E0A90102C0559502
:1010000047958A95E2F7CA01582F51705B8327C034
:10101000E3E3F0E08081282F30E08A81882F90E0A0
:10102000A90102C0559547958A95E2F7CA01582F44
:1010300051705B8314C0E0E3F0E08081282F30E042
:101040008A81882F90E0A90102C0559547958A951D
:10105000E2F7CA01582F51705B8301C002C08B8137
:101060008E838E8126960FB6F894DEBF0FBECDBF5D
:10107000CF91DF910895DF93CF93CDB7DEB72D9752
:101080000FB6F894DEBF0FBECDBF89836A834B8352
:101090008981282F30E03D872C878C859D85813084
:1010A000910509F444C02C853D85223031052CF48E
:1010B0008C859D85009771F0C2C02C853D852230BE
:1010C000310509F462C08C859D858330910509F452
:1010D00089C0B5C08B818823A9F0AAE3B0E0EAE318
:1010E000F0E08081482F8A81282F30E081E090E075
:1010F000022E02C0880F991F0A94E2F7842B8C936A
:101100009C919DC0AAE3B0E0EAE3F0E08081482F23
:101110008A81282F30E081E090E002C0880F991F7B
:101120002A95E2F7809584238C932C9188C08B813B
:101130008823A9F0A7E3B0E0E7E3F0E08081482F3F
:101140008A81282F30E081E090E0022E02C0880FD3
:10115000991F0A94E2F7842B8C933C9170C0A7E30B
:10116000B0E0E7E3F0E08081482F8A81282F30E06B
:1011700081E090E0022E02C0880F991F0A94E2F7E6
:10118000809584238C938C915AC08B818823A9F0FD
:10119000A4E3B0E0E4E3F0E08081482F8A81282FC7
:1011A00030E081E090E0022E02C0880F991F0A947F
:1011B000E2F7842B8C939C9142C0A4E3B0E0E4E37B
:1011C000F0E08081482F8A81282F30E081E090E094
:1011D00002C0880F991F2A95E2F7809584238C938B
:1011E0002C912DC08B818823A9F0A1E3B0E0E1E32D
:1011F000F0E08081482F8A81282F30E081E090E064
:10120000022E02C0880F991F0A94E2F7842B8C9358
:101210003C9115C0A1E3B0E0E1E3F0E08081482F0C
:101220008A81282F30E081E090E0022E02C0880FF2
:10123000991F0A94E2F7809584238C938C912D96C4
:101240000FB6F894DEBF0FBECDBFCF91DF910895EA
:10125000DF93CF9300D000D0CDB7DEB789836A8308
:101260008981282F30E03C832B838B819C818130C6
:101270009105D1F02B813C81223031052CF48B81FA
:101280009C81009761F01EC02B813C81223031058A
:1012900081F08B819C818330910581F013C0EBE359
:1012A000F0E08A8180830EC0E8E3F0E08A818083E9
:1012B00009C0E5E3F0E08A81808304C0E2E3F0E066
:1012C0008A8180830F900F900F900F90CF91DF91C4
:1012D0000895DF93CF9300D000D00F92CDB7DEB743
:1012E00089838981282F30E03C832B838B819C81EB
:1012F00081309105D1F02B813C81223031052CF4D5
:101300008B819C81009761F01FC02B813C81223032
:10131000310581F08B819C818330910581F014C06F
:10132000EBE3F0E090819A8310C0E8E3F0E02081E5
:101330002A830BC0E5E3F0E030813A8306C0E2E3A4
:10134000F0E080818A8301C002C09A819D838D81F3
:101350000F900F900F900F900F90CF91DF91089505
:10136000DF93CF9300D000D0CDB7DEB789836A83F7
:101370008981282F30E03C832B838B819C818130B5
:10138000910509F12B813C81223031052CF48B81B0
:101390009C81009761F03AC02B813C81223031055D
:1013A000F1F08B819C818330910529F12FC08A81D6
:1013B000882329F0EAE3F0E08FEF808327C0EAE397
:1013C000F0E0108223C08A81882329F0E7E3F0E06F
:1013D0008FEF80831BC0E7E3F0E0108217C08A81A3
:1013E000882329F0E4E3F0E08FEF80830FC0E4E38B
:1013F000F0E010820BC08A81882329F0E1E3F0E05D
:101400008FEF808303C0E1E3F0E010820F900F9034
:101410000F900F90CF91DF910895DF93CF9300D07D
:1014200000D00F92CDB7DEB79A83898380E290E037
:101430009D838C83E981FA818285813019F490E261
:101440009B8302C0ECE0EB838B81EC81FD81808388
:10145000A2E2B0E0E981FA8181858C93E981FA8189
:101460001382E981FA818381E981FA8187830F9070
:101470000F900F900F900F90CF91DF910895DF9311
:10148000CF93CDB7DEB760970FB6F894DEBF0FBE2F
:10149000CDBF888B80E090E0A0E2B1E48B879C8791
:1014A000AD87BE876B857C858D859E8520E030E08D
:1014B0004AE753E40E941F02DC01CB018F83988727
:1014C000A987BA876F81788589859A8520E030E081
:1014D00040E85FE30E94250488232CF481E090E03B
:1014E0009E838D833FC06F81788589859A8520E0B2
:1014F0003FEF4FE757E40E94C50318164CF56B8584
:101500007C858D859E8520E030E040E251E40E949C
:101510001F02DC01CB01BC01CD010E944900DC01AE
:10152000CB019E838D830FC089E190E09C838B83E8
:101530008B819C810197F1F79C838B838D819E81A8
:1015400001979E838D838D819E81009769F714C0DA
:101550006F81788589859A850E944900DC01CB01DD
:101560009E838D838D819E819A83898389819A81CF
:101570000197F1F79A838983E6E5F0E084EA8083B6
:10158000E6E5F0E080818823DCF7E1E2F0E08081AD
:10159000887F8F878F85883009F07CCFE3E2F0E089
:1015A00088898083E6E5F0E084E88083E6E5F0E082
:1015B00080818823DCF7E1E2F0E08081887F8F87FB
:1015C0008F85883131F08F85883319F00E94940D12
:1015D00061CF60960FB6F894DEBF0FBECDBFCF913E
:1015E000DF910895DF93CF9300D000D0CDB7DEB761
:1015F0009B838A83EA81FB8113822BC0A3E2B0E044
:10160000EA81FB8120813181EA81FB818381882FFE
:1016100090E0F901E80FF91F80818C93E6E5F0E096
:1016200084E88083E6E5F0E080818823DCF7E1E26E
:10163000F0E08081887F89838981883219F08FEF7B
:101640008C8311C0EA81FB8183818F5FEA81FB81FA
:101650008383EA81FB819381EA81FB8182819817F0
:1016600068F281E08C838C810F900F900F900F9027
:10167000CF91DF910895DF93CF93CDB7DEB7629717
:101680000FB6F894DEBF0FBECDBF998B888BE6E511
:10169000F0E084E8808380E090E0A0E2B1E48B8712
:1016A0009C87AD87BE876B857C858D859E8520E078
:1016B00030E04AE753E40E941F02DC01CB018F8334
:1016C0009887A987BA876F81788589859A8520E070
:1016D00030E040E85FE30E94250488232CF481E099
:1016E00090E09E838D833FC06F81788589859A8540
:1016F00020E03FEF4FE757E40E94C50318164CF572
:101700006B857C858D859E8520E030E040E251E44C
:101710000E941F02DC01CB01BC01CD010E944900E7
:10172000DC01CB019E838D830FC089E190E09C8317
:101730008B838B819C810197F1F79C838B838D81B7
:101740009E8101979E838D838D819E81009769F78D
:1017500014C06F81788589859A850E944900DC01D3
:10176000CB019E838D838D819E819A83898389811C
:101770009A810197F1F79A838983E6E5F0E0808109
:101780008823DCF7E1E2F0E08081887F8F878F8516
:10179000803519F08FEF8A8B26C0E889F989978107
:1017A000E889F98986819817E0F4E889F989248124
:1017B0003581E889F9898781882F90E0D901A80FC0
:1017C000B91FE3E2F0E080818C93E889F989878191
:1017D0008F5FE889F9898783E6E5F0E084E8808314
:1017E000CCCF81E08A8B8A8962960FB6F894DEBFEF
:1017F0000FBECDBFCF91DF910895DF93CF93CDB7CB
:10180000DEB762970FB6F894DEBF0FBECDBF998BDF
:10181000888BE6E5F0E084EC808380E090E0A0E255
:10182000B1E48B879C87AD87BE876B857C858D8572
:101830009E8520E030E04AE753E40E941F02DC016D
:10184000CB018F839887A987BA876F81788589852F
:101850009A8520E030E040E85FE30E942504882379
:101860002CF481E090E09E838D833FC06F8178856A
:1018700089859A8520E03FEF4FE757E40E94C50332
:1018800018164CF56B857C858D859E8520E030E0B3
:1018900040E251E40E941F02DC01CB01BC01CD01FA
:1018A0000E944900DC01CB019E838D830FC089E13A
:1018B00090E09C838B838B819C810197F1F79C83C3
:1018C0008B838D819E8101979E838D838D819E81E7
:1018D000009769F714C06F81788589859A850E9481
:1018E0004900DC01CB019E838D838D819E819A838B
:1018F000898389819A810197F1F79A838983E6E543
:10190000F0E080818823DCF7E1E2F0E08081887FED
:101910008F878F85883B19F5E889F9899381E88954
:10192000F98982819817C0F4A3E2B0E0E889F989C7
:1019300020813181E889F9898381882F90E0F9013C
:10194000E80FF91F80818C93E889F98983818F5F83
:10195000E889F989838309C081E08A8B0BC08F8570
:10196000883A19F08FEF8A8B05C0E6E5F0E084EC49
:101970008083C5CF8A8962960FB6F894DEBF0FBE0A
:10198000CDBFCF91DF910895DF93CF93CDB7DEB771
:1019900062970FB6F894DEBF0FBECDBF998B888BD0
:1019A000E889F9891782E6E5F0E084EC808380E03D
:1019B00090E0A0E2B1E48B879C87AD87BE876B8502
:1019C0007C858D859E8520E030E04AE753E40E94C7
:1019D0001F02DC01CB018F839887A987BA876F81AB
:1019E000788589859A8520E030E040E85FE30E94B1
:1019F000250488232CF481E090E09E838D833FC0F2
:101A00006F81788589859A8520E03FEF4FE757E41D
:101A10000E94C50318164CF56B857C858D859E85C7
:101A200020E030E040E251E40E941F02DC01CB01E3
:101A3000BC01CD010E944900DC01CB019E838D8356
:101A40000FC089E190E09C838B838B819C810197FF
:101A5000F1F79C838B838D819E8101979E838D837B
:101A60008D819E81009769F714C06F817885898583
:101A70009A850E944900DC01CB019E838D838D8174
:101A80009E819A83898389819A810197F1F79A834C
:101A90008983E6E5F0E080818823DCF7E1E2F0E08D
:101AA0008081887F8F878F85803819F5E889F9894B
:101AB0009781E889F98986819817C0F4E889F989BE
:101AC00024813581E889F9898781882F90E0D901BF
:101AD000A80FB91FE3E2F0E080818C93E889F989CF
:101AE00087818F5FE889F98987830FC082E08A8BBD
:101AF00011C08F85803619F08FEF8A8B0BC08F85D0
:101B0000803A19F481E08A8B05C0E6E5F0E084ECC8
:101B10008083BFCF8A8962960FB6F894DEBF0FBE6E
:101B2000CDBFCF91DF910895DF93CF93CDB7DEB7CF
:101B3000E6E5F0E084E98083E6E5F0E08081882F47
:101B400090E0807190700097B9F7CF91DF91089580
:101B5000DF93CF93CDB7DEB72F970FB6F894DEBFE4
:101B60000FBECDBF8F8781E062E040E00E944F064C
:101B700081E061E040E00E944F0683E06F850E94B3
:101B8000280981E060E041E00E944F0680E090E09B
:101B9000A0E8BFE38B879C87AD87BE876B857C857C
:101BA0008D859E8520E030E04AE753E40E941F02C5
:101BB000DC01CB018F839887A987BA876F817885ED
:101BC00089859A8520E030E040E85FE30E942504A3
:101BD00088232CF481E090E09E838D833FC06F8149
:101BE000788589859A8520E03FEF4FE757E40E948A
:101BF000C50318164CF56B857C858D859E8520E088
:101C000030E040E251E40E941F02DC01CB01BC0144
:101C1000CD010E944900DC01CB019E838D830FC062
:101C200089E190E09C838B838B819C810197F1F704
:101C30009C838B838D819E8101979E838D838D8173
:101C40009E81009769F714C06F81788589859A8590
:101C50000E944900DC01CB019E838D838D819E8192
:101C60009A83898389819A810197F1F79A8389837D
:101C700081E060E040E00E944F062F960FB6F89496
:101C8000DEBF0FBECDBFCF91DF910895DF93CF931D
:101C9000CDB7DEB72F970FB6F894DEBF0FBECDBF1E
:101CA0008F8781E062E041E00E944F0681E061E0C1
:101CB00040E00E944F0683E06F850E94280981E082
:101CC00060E041E00E944F0680E090E0A0E8BFE3C2
:101CD0008B879C87AD87BE876B857C858D859E8530
:101CE00020E030E04AE753E40E941F02DC01CB0110
:101CF0008F839887A987BA876F81788589859A8528
:101D000020E030E040E85FE30E94250488232CF4C3
:101D100081E090E09E838D833FC06F8178858985C7
:101D20009A8520E03FEF4FE757E40E94C50318165D
:101D30004CF56B857C858D859E8520E030E040E20A
:101D400051E40E941F02DC01CB01BC01CD010E94C5
:101D50004900DC01CB019E838D830FC089E190E0B7
:101D60009C838B838B819C810197F1F79C838B8370
:101D70008D819E8101979E838D838D819E810097A9
:101D800069F714C06F81788589859A850E9449001A
:101D9000DC01CB019E838D838D819E819A83898313
:101DA00089819A810197F1F79A83898381E060E0C4
:101DB00040E00E944F062F960FB6F894DEBF0FBE8C
:101DC000CDBFCF91DF9108950F931F93DF93CF93F2
:101DD000CDB7DEB7CC54D0400FB6F894DEBF0FBEFF
:101DE000CDBF83E061E00E94B00981E061E00E9424
:101DF000B009FE01E75BFF4F80E090E0A0E2B2E4B3
:101E000080839183A283B3838E010B5B1F4FFE01FE
:101E1000E75BFF4F608171818281938120E030E038
:101E20004AE753E40E941F02DC01CB01F8018083E2
:101E30009183A283B383FE01EB5BFF4F60817181CD
:101E40008281938120E030E040E85FE30E94250436
:101E5000882344F4FE01ED5BFF4F81E090E0918325
:101E6000808364C0FE01EB5BFF4F608171818281E2
:101E7000938120E03FEF4FE757E40E94C503181617
:101E80000CF043C0FE01E75BFF4F608171818281EE
:101E9000938120E030E040E251E40E941F02DC0127
:101EA000CB018E010D5B1F4FBC01CD010E9449008B
:101EB000DC01CB01F801918380831FC0FE01EF5B41
:101EC000FF4F89E190E091838083FE01EF5BFF4F3C
:101ED000808191810197F1F7FE01EF5BFF4F9183C4
:101EE0008083DE01AD5BBF4FFE01ED5BFF4F808164
:101EF0009181019711969C938E93FE01ED5BFF4FAC
:101F0000808191810097D1F624C08E010D5B1F4F17
:101F1000FE01EB5BFF4F60817181828193810E94A2
:101F20004900DC01CB01F80191838083FE01ED5B68
:101F3000FF4F80819181FE01FF9691838083FE0196
:101F4000FF96808191810197F1F7FE01FF969183C1
:101F500080838CE30E94A80D80E090E0A0E2B2E4D0
:101F60008BAF9CAFADAFBEAF6BAD7CAD8DAD9EAD5D
:101F70002BEA3AEA4AEA5EE30E941F02DC01CB0147
:101F80008FAB98AFA9AFBAAF6FA978AD89AD9AAD55
:101F900020E030E040E85FE30E94250488231CF441
:101FA00081E08EAB91C06FA978AD89AD9AAD20E08C
:101FB00030E04FE753E40E94C50318160CF07BC0D5
:101FC0006BAD7CAD8DAD9EAD20E030E04AE754E4D2
:101FD0000E941903DC01CB018AAB9BABACABBDAB60
:101FE0006AA97BA98CA99DA920E030E04AE753E4C7
:101FF0000E941F02DC01CB018EA79FA7A8ABB9AB43
:102000006EA57FA588A999A920E030E040E85FE3AC
:102010000E94250488232CF481E090E09DA78CA7E2
:102020003FC06EA57FA588A999A920E03FEF4FE7A3
:1020300057E40E94C50318164CF56AA97BA98CA920
:102040009DA920E030E040E251E40E941F02DC0143
:10205000CB01BC01CD010E944900DC01CB019DA751
:102060008CA70FC089E190E09BA78AA78AA59BA5B2
:102070000197F1F79BA78AA78CA59DA501979DA71E
:102080008CA78CA59DA5009769F724C06EA57FA598
:1020900088A999A90E944900DC01CB019DA78CA7C2
:1020A0008CA59DA599A788A788A599A50197F1F763
:1020B00099A788A70FC06FA978AD89AD9AAD0E9486
:1020C0004900DC01CB018EAB8EA98FA38FA18A952D
:1020D000F1F78FA38CE00E94A80D80E090E0A0E2D1
:1020E000B2E48BA39CA3ADA3BEA36BA17CA18DA1E5
:1020F0009EA12BEA3AEA4AEA5EE30E941F02DC0153
:10210000CB018F8F98A3A9A3BAA36F8D78A189A1C2
:102110009AA120E030E040E85FE30E942504882394
:102120001CF481E08E8F91C06F8D78A189A19AA156
:1021300020E030E04FE753E40E94C50318160CF08E
:102140007BC06BA17CA18DA19EA120E030E04AE77D
:1021500054E40E941903DC01CB018A8F9B8FAC8F62
:10216000BD8F6A8D7B8D8C8D9D8D20E030E04AE7A0
:1021700053E40E941F02DC01CB018E8B9F8BA88F42
:10218000B98F6E897F89888D998D20E030E040E895
:102190005FE30E94250488232CF481E090E09D8B6E
:1021A0008C8B3FC06E897F89888D998D20E03FEFB1
:1021B0004FE757E40E94C50318164CF56A8D7B8DD6
:1021C0008C8D9D8D20E030E040E251E40E941F02A2
:1021D000DC01CB01BC01CD010E944900DC01CB0137
:1021E0009D8B8C8B0FC089E190E09B8B8A8B8A89B9
:1021F0009B890197F1F79B8B8A8B8C899D8901972D
:102200009D8B8C8B8C899D89009769F724C06E8982
:102210007F89888D998D0E944900DC01CB019D8BBF
:102220008C8B8C899D89998B888B8889998901975A
:10223000F1F7998B888B0FC06F8D78A189A19AA136
:102240000E944900DC01CB018E8F8E8D8F878F8598
:102250008A95F1F78F8781E00E94A80D80E090E0D9
:10226000A0E0B0E48B879C87AD87BE876B857C85BB
:102270008D859E8520E030E04AE753E40E941F02EE
:10228000DC01CB018F839887A987BA876F81788516
:1022900089859A8520E030E040E85FE30E942504CC
:1022A00088232CF481E090E09E838D833FC06F8172
:1022B000788589859A8520E03FEF4FE757E40E94B3
:1022C000C50318164CF56B857C858D859E8520E0B1
:1022D00030E040E251E40E941F02DC01CB01BC016E
:1022E000CD010E944900DC01CB019E838D830FC08C
:1022F00089E190E09C838B838B819C810197F1F72E
:102300009C838B838D819E8101979E838D838D819C
:102310009E81009769F714C06F81788589859A85B9
:102320000E944900DC01CB019E838D838D819E81BB
:102330009A83898389819A810197F1F79A838983A6
:1023400086E00E94A80DC45BDF4F0FB6F894DEBF95
:102350000FBECDBFCF91DF911F910F9108950F93C5
:102360001F93DF93CF93CDB7DEB763970FB6F89483
:10237000DEBF0FBECDBF69877A878B879C874D876D
:102380002DB73EB73B8B2A8B8DB79EB79F878E8725
:1023900089859A859E838D831C821B820FC08B81C9
:1023A0009C8101969C838B838D819E812AE030E005
:1023B000B9010E948C16CB019E838D838D819E81F5
:1023C000009769F78B819C81880F991F2DB73EB7C5
:1023D000281B390B0FB6F8943EBF0FBE2DBF8DB72B
:1023E0009EB70196998B888B888999890096998BDD
:1023F000888B2889398938872F831A82198234C0BB
:1024000009811A8189859A85AB85BC852AE030E0EF
:1024100040E050E0BC01CD010E94A016DC01CB01E0
:10242000AC01405D5F4F2F813885C801880F991F2F
:10243000F901E80FF91F5183408389859A85AB859F
:10244000BC852AE030E040E050E0BC01CD010E94B4
:10245000A016DA01C90189879A87AB87BC87898171
:102460009A8101969A83898389859A85AB85BC85F3
:102470000097A105B10521F68B819C8101979A8374
:10248000898320C089819A812F813885880F991F7F
:10249000F901E80FF91F808191810E94A0138D85B9
:1024A000882359F08D85282F30E089819A8128175B
:1024B000390719F485EA0E94A01389819A8101974E
:1024C0009A83898389819A819923E4F68E859F85F1
:1024D0000FB6F8949EBF0FBE8DBF2A893B890FB6F9
:1024E000F8943EBF0FBE2DBF63960FB6F894DEBFC3
:1024F0000FBECDBFCF91DF911F910F910895DF9354
:10250000CF9300D000D0CDB7DEB79C838B831A82E7
:1025100019820FC02B813C8189819A81F901E80FD2
:10252000F91F80810E94A01389819A8101969A8364
:1025300089838B819C810E941E179C0189819A81CD
:102540008217930738F30F900F900F900F90CF9151
:10255000DF910895DF93CF9300D0CDB7DEB78983A5
:102560006A838A81882F90E0002496958795079446
:10257000969587950794982F802D982F8981890F9C
:1025800080580E94A80D0F900F90CF91DF91089571
:10259000DF93CF93CDB7DEB7CF91DF9108950F933F
:1025A0001F93DF93CF93CDB7DEB766970FB6F8943E
:1025B000DEBF0FBECDBF9C8B8B8B6D8B1F861A8AA7
:1025C000AFC081E00E94A80D8A89888B198A29C032
:1025D0008989282F30E08B899C89FC01E20FF31F49
:1025E0008081803249F41E8A8F85882311F481E02E
:1025F0008E8B8E898F8712C088896F850E94AA1260
:1026000088898F5F888B8989282F30E08B899C8906
:10261000FC01E20FF31F80810E94A01389898F5F64
:10262000898B8989082F10E08B899C890E941E174D
:102630000817190768F280E090E0AAEFB3E48B87EF
:102640009C87AD87BE876B857C858D859E8520E0C8
:1026500030E04AE753E40E941F02DC01CB018F8384
:102660009887A987BA876F81788589859A8520E0C0
:1026700030E040E85FE30E94250488232CF481E0E9
:1026800090E09E838D833FC06F81788589859A8590
:1026900020E03FEF4FE757E40E94C50318164CF5C2
:1026A0006B857C858D859E8520E030E040E251E49D
:1026B0000E941F02DC01CB01BC01CD010E94490038
:1026C000DC01CB019E838D830FC089E190E09C8368
:1026D0008B838B819C810197F1F79C838B838D8108
:1026E0009E8101979E838D838D819E81009769F7DE
:1026F00014C06F81788589859A850E944900DC0124
:10270000CB019E838D838D819E819A83898389816C
:102710009A810197F1F79A8389838A898F5F8A8BDF
:102720009A898D89981708F44CCF66960FB6F8945D
:10273000DEBF0FBECDBFCF91DF911F910F910895E6
:10274000DF93CF93CDB7DEB72F970FB6F894DEBFE8
:102750000FBECDBF8F8781E062E041E00E944F064F
:1027600081E061E040E00E944F0683E06F850E94B7
:10277000280981E060E041E00E944F0680E090E09F
:10278000A0E8BFE38B879C87AD87BE876B857C8580
:102790008D859E8520E030E04AE753E40E941F02C9
:1027A000DC01CB018F839887A987BA876F817885F1
:1027B00089859A8520E030E040E85FE30E942504A7
:1027C00088232CF481E090E09E838D833FC06F814D
:1027D000788589859A8520E03FEF4FE757E40E948E
:1027E000C50318164CF56B857C858D859E8520E08C
:1027F00030E040E251E40E941F02DC01CB01BC0149
:10280000CD010E944900DC01CB019E838D830FC066
:1028100089E190E09C838B838B819C810197F1F708
:102820009C838B838D819E8101979E838D838D8177
:102830009E81009769F714C06F81788589859A8594
:102840000E944900DC01CB019E838D838D819E8196
:102850009A83898389819A810197F1F79A83898381
:1028600081E060E040E00E944F062F960FB6F8949A
:10287000DEBF0FBECDBFCF91DF9108950F931F93A1
:10288000DF93CF93CDB7DEB72C970FB6F894DEBFAA
:102890000FBECDBF9A8789877C876B8718861F827A
:1028A0007BC01E821D826DC01C821B821A8219820F
:1028B00049C049855A858F8198859C01220F331F15
:1028C000220F331F89819A81820F931F9C01220F4F
:1028D000331FC901880F991F880F991F820F931FFB
:1028E000840F951F0E94F9168C014B855C858981A8
:1028F0009A819C01220F331F220F331F8D819E81ED
:10290000820F931F9C01220F331FC901880F991F4B
:10291000880F991F820F931F840F951F0E94F9162D
:10292000089F9001099F300D189F300D11248B8155
:102930009C81820F931F9C838B8389819A8101964E
:102940009A83898389819A818430910508F4B1CF73
:102950008F8198859C01220F331F220F331F8D8199
:102960009E81820F931F880F991FFC01EA5EFE4F24
:102970008B819C81918380838D819E8101969E8332
:102980008D838D819E818430910508F48DCF8F8158
:102990009885019698878F838F81988582309105DD
:1029A00008F47FCF2C960FB6F894DEBF0FBECDBFD4
:1029B000CF91DF911F910F910895DF93CF93CDB702
:1029C000DEB7C357D0400FB6F894DEBF0FBECDBF01
:1029D0000E94E40E84E08AA381E08BA3188E1F8AF4
:1029E00038C046E751E08F89988D9C01220F331F34
:1029F000C901880F991F880F991F820F931F840F99
:102A0000951F9E8F8D8F8AE08F8F81E089A3CE01E5
:102A100049960E940D0ACE0149960E94C40C46E7D1
:102A200050E08F89988D9C01220F331FC901880FB8
:102A3000991F880F991F820F931F840F951F2D8D4B
:102A40003E8DB9010E9417178F89988D0196988F36
:102A50008F8B8F89988D8031910518F21E8A1D8A7F
:102A600038C040E851E08D899E899C01220F331FB8
:102A7000C901880F991F880F991F820F931F840F18
:102A8000951F9E8F8D8F8AE08F8F81E089A3CE0165
:102A900049960E940D0ACE0149960E94C40C46E256
:102AA00051E08D899E899C01220F331FC901880F37
:102AB000991F880F991F820F931F840F951F2D8DCB
:102AC0003E8DB9010E9417178D899E8901969E8BB4
:102AD0008D8B8D899E898830910518F286E291E070
:102AE00026E730E0B9010E943E141C8A1B8A24C0EC
:102AF0008B899C89880F991FFC01EA5EFE4F8081BB
:102B00009181AA2797FDA095BA2FBC01CD0140E085
:102B10000E94AF1180E690E00E947F128B899C8911
:102B20008330910521F480E061E00E94AA128B8934
:102B30009C8901969C8B8B8B8B899C898830910515
:102B4000BCF21A8A198A37C0AE014C5D5F4F898981
:102B50009A899C01220F331FC901880F991F880F82
:102B6000991F820F931F480F591F89899A89880FCF
:102B7000991FFC01EA5EFE4F2081318100D000D018
:102B800000D0EDB7FEB731965183408382E690E0E6
:102B900093838283358324830E942F178DB79EB73A
:102BA00006960FB6F8949EBF0FBE8DBF89899A898D
:102BB00001969A8B898B89899A898830910520F2B0
:102BC000188A1F8699C0AE014C5D5F4F8F8598892A
:102BD0009C01220F331FC901880F991F880F991F6D
:102BE000820F931F840F951F9A8F898F8AE08B8F96
:102BF000CE0149960E940D0A86E00E943F0A80E0BD
:102C000090E0A0E2B1E48B879C87AD87BE876B859F
:102C10007C858D859E8520E030E04AEF54E40E945B
:102C20001F02DC01CB018F839887A987BA876F8148
:102C3000788589859A8520E030E040E85FE30E944E
:102C4000250488232CF481E090E09E838D833FC08F
:102C50006F81788589859A8520E03FEF4FE757E4BB
:102C60000E94C50318164CF56B857C858D859E8565
:102C700020E030E040E251E40E941F02DC01CB0181
:102C8000BC01CD010E944900DC01CB019E838D83F4
:102C90000FC088EC90E09C838B838B819C81019793
:102CA000F1F79C838B838D819E8101979E838D8319
:102CB0008D819E81009769F714C06F817885898521
:102CC0009A850E944900DC01CB019E838D838D8112
:102CD0009E819A83898389819A810197F1F79A83EA
:102CE0008983CE0149960E94F20A0E94940D8F8535
:102CF00098890196988B8F878F8598898830910560
:102D000008F461CFCD58DF4F0FB6F894DEBF0FBE89
:102D1000CDBFCF91DF910895AA1BBB1B51E107C026
:102D2000AA1FBB1FA617B70710F0A61BB70B881F5B
:102D3000991F5A95A9F780959095BC01CD010895EA
:102D4000A1E21A2EAA1BBB1BFD010DC0AA1FBB1FAF
:102D5000EE1FFF1FA217B307E407F50720F0A21B21
:102D6000B30BE40BF50B661F771F881F991F1A948E
:102D700069F760957095809590959B01AC01BD01B8
:102D8000CF0108952F923F924F925F926F927F9260
:102D90008F929F92AF92BF92CF92DF92EF92FF926B
:102DA0000F931F93CF93DF93CDB7DEB7CA1BDB0B17
:102DB0000FB6F894DEBF0FBECDBF09942A883988BC
:102DC00048885F846E847D848C849B84AA84B984C3
:102DD000C884DF80EE80FD800C811B81AA81B981CF
:102DE000CE0FD11D0FB6F894DEBF0FBECDBFED01E3
:102DF0000895FC0188279927E89421912032E9F36E
:102E0000293010F02E30C8F32B3241F02D3239F436
:102E1000689404C00E942717820F911D21912053AE
:102E20002A30C0F31EF4909581959F4F0895FB01C1
:102E3000DC0101900D920020E1F70895FC01019062
:102E40000020E9F7809590958E0F9F1F08957AE0F6
:102E5000979F902D879F802D910D11240895AEE0AE
:102E6000B0E0E5E3F7E10C94D0160D891E8986E009
:102E70008C831A8309838FEF9FE79E838D839E0146
:102E8000275E3F4FCE0101966F89788DA9010E9480
:102E900053172F813885020F131FF80110822E96C9
:102EA000E4E00C94EC16ABE0B0E0E9E5F7E10C945B
:102EB000C2163C012B015A01FC0117821682838144
:102EC00081FD03C06FEF7FEFC6C19AE0892E1E011E
:102ED0000894211C311CF3012381F20123FD85910B
:102EE00023FF81912F01882309F4B2C1853239F47F
:102EF00023FD859123FF81912F01853229F490E0F4
:102F0000B3010E944619E7CF982FFF24EE2499249D
:102F1000FFE1FF15D0F09B3269F09C3228F490322B
:102F200059F0933291F40EC09D3249F0903369F418
:102F300041E024C052E0F52A84E0F82A28C098E055
:102F4000F92A25C0E0E1FE2A22C0F7FC29C0892F1A
:102F500080538A3070F4F6FE05C0989C902C1124A2
:102F6000980E15C0E89CE02C1124E80EF0E2FF2A30
:102F70000EC09E3229F4F6FC6BC140E4F42A07C06F
:102F80009C3619F450E8F52A02C0983649F4F2014B
:102F900023FD959123FF91912F01992309F0B8CF3B
:102FA000892F8554833018F08052833038F444E000
:102FB00050E0A40EB51E5FE359830FC0933631F085
:102FC000933779F0933509F056C020C0F501808120
:102FD000898342E050E0A40EB51E610101E010E0DB
:102FE00012C0F501C080D180F6FC03C06FEF7FEF07
:102FF00002C0692D70E042E050E0A40EB51EC6018B
:103000000E943B198C015FE7F52214C0F501C080D6
:10301000D180F6FC03C06FEF7FEF02C0692D70E036
:1030200042E050E0A40EB51EC6010E9430198C018A
:1030300050E8F52AF3FE07C01AC080E290E0B30121
:103040000E944619EA948E2D90E008171907A8F3FC
:103050000EC0F601F7FC8591F7FE81916F0190E0BB
:10306000B3010E944619E110EA9401501040011585
:10307000110579F7EAC0943611F0993669F5F7FE33
:1030800008C0F501208131814281538184E090E0C4
:103090000AC0F501808191819C01442737FD40954C
:1030A000542F82E090E0A80EB91E9FE6F92257FF48
:1030B00009C050954095309521953F4F4F4F5F4F38
:1030C000E0E8FE2ACA01B901A1012AE030E00E942D
:1030D0007219D82ED21840C0953729F41F2D1F7EA3
:1030E0002AE030E01DC01F2D197F9F3661F0903718
:1030F00020F4983509F0ACC00FC0903739F09837FC
:1031000009F0A6C004C028E030E00AC0106114FD38
:10311000146020E130E004C014FD166020E132E0CC
:1031200017FF08C0F501608171818281938144E0BD
:1031300050E008C0F50180819181BC0180E090E001
:1031400042E050E0A40EB51EA1010E947219D82ED3
:10315000D2188FE7F82EF122F6FE0BC05EEFF522B3
:10316000D91438F4F4FE07C0F2FC05C08FEEF82243
:1031700002C01D2D01C0192DF4FE0DC0FE01ED0D84
:10318000F11D8081803319F499EEF92208C01F5F88
:10319000F2FE05C003C08F2D867809F01F5F0F2D4A
:1031A000F3FC14C0F0FE0FC01E1510F09D2C0BC0D8
:1031B0009D2C9E0C911A1E2D06C080E290E0B3015A
:1031C0000E9446191F5F1E15C0F304C01E1510F49F
:1031D000E11A01C0EE2404FF0FC080E390E0B301C8
:1031E0000E94461902FF1DC001FD03C088E790E060
:1031F0000EC088E590E00BC0802F867891F001FF2B
:1032000002C08BE201C080E2F7FC8DE290E0B301E6
:103210000E94461906C080E390E0B3010E9446195F
:103220009A94D914C0F3DA94F101ED0DF11D808167
:1032300090E0B3010E944619DD20A9F706C080E2A4
:1032400090E0B3010E944619EA94EE20C1F743CE04
:10325000F30166817781CB012B96E2E10C94DE16B7
:10326000FC010590615070400110D8F78095909551
:103270008E0F9F1F0895FC01615070400190011056
:10328000D8F7809590958E0F9F1F08950F931F93E9
:10329000CF93DF938C01EB018B8181FF1BC082FFF9
:1032A0000DC02E813F818C819D812817390764F4E0
:1032B000E881F9810193F983E88306C0E885F985FF
:1032C000802F0995892B31F48E819F8101969F83F0
:1032D0008E8302C00FEF1FEFC801DF91CF911F91C6
:1032E0000F910895FA01AA27283051F1203181F178
:1032F000E8946F936E7F6E5F7F4F8F4F9F4FAF4FFE
:10330000B1E03ED0B4E03CD0670F781F891F9A1F10
:10331000A11D680F791F8A1F911DA11D6A0F711DC4
:10332000811D911DA11D20D009F468943F912AE0D0
:10333000269F11243019305D3193DEF6CF010895B8
:10334000462F4770405D4193B3E00FD0C9F7F6CFE9
:10335000462F4F70405D4A3318F0495D31FD4052B1
:10336000419302D0A9F7EACFB4E0A6959795879547
:1033700077956795BA95C9F7009761057105089526
:103380009B01AC010A2E06945795479537952795D2
:10339000BA95C9F7620F731F841F951FA01D08956A
:0433A000F894FFCFCF
:1033A4002E00256400000000000000000000070556
:0633B400050708080000F7
:00000001FF
